{
  "_format": "hh-sol-artifact-1",
  "contractName": "Marketplace",
  "sourceName": "src/backend/contracts/Marketplace.sol",
  "abi": [
    {
      "inputs": [
        {
          "internalType": "uint256",
          "name": "_feePercent",
          "type": "uint256"
        }
      ],
      "stateMutability": "nonpayable",
      "type": "constructor"
    },
    {
      "anonymous": false,
      "inputs": [
        {
          "indexed": true,
          "internalType": "uint256",
          "name": "auctionId",
          "type": "uint256"
        },
        {
          "indexed": true,
          "internalType": "address",
          "name": "seller",
          "type": "address"
        },
        {
          "indexed": true,
          "internalType": "uint256",
          "name": "itemId",
          "type": "uint256"
        }
      ],
      "name": "AuctionCanceled",
      "type": "event"
    },
    {
      "anonymous": false,
      "inputs": [
        {
          "indexed": true,
          "internalType": "uint256",
          "name": "acutionId",
          "type": "uint256"
        },
        {
          "indexed": true,
          "internalType": "uint256",
          "name": "nftId",
          "type": "uint256"
        },
        {
          "indexed": true,
          "internalType": "address",
          "name": "seller",
          "type": "address"
        },
        {
          "indexed": false,
          "internalType": "uint256",
          "name": "endAt",
          "type": "uint256"
        },
        {
          "indexed": false,
          "internalType": "uint256",
          "name": "price",
          "type": "uint256"
        }
      ],
      "name": "AuctionCreated",
      "type": "event"
    },
    {
      "anonymous": false,
      "inputs": [
        {
          "indexed": true,
          "internalType": "uint256",
          "name": "auctionId",
          "type": "uint256"
        },
        {
          "indexed": true,
          "internalType": "address",
          "name": "bidder",
          "type": "address"
        },
        {
          "indexed": true,
          "internalType": "uint256",
          "name": "nftId",
          "type": "uint256"
        },
        {
          "indexed": false,
          "internalType": "uint256",
          "name": "price",
          "type": "uint256"
        }
      ],
      "name": "AuctionEnded",
      "type": "event"
    },
    {
      "anonymous": false,
      "inputs": [
        {
          "indexed": true,
          "internalType": "uint256",
          "name": "auctionId",
          "type": "uint256"
        },
        {
          "indexed": true,
          "internalType": "address",
          "name": "bidder",
          "type": "address"
        },
        {
          "indexed": true,
          "internalType": "uint256",
          "name": "nftId",
          "type": "uint256"
        },
        {
          "indexed": false,
          "internalType": "uint256",
          "name": "bid",
          "type": "uint256"
        }
      ],
      "name": "Bid",
      "type": "event"
    },
    {
      "anonymous": false,
      "inputs": [
        {
          "indexed": false,
          "internalType": "uint256",
          "name": "itemId",
          "type": "uint256"
        },
        {
          "indexed": true,
          "internalType": "address",
          "name": "nft",
          "type": "address"
        },
        {
          "indexed": false,
          "internalType": "uint256",
          "name": "tokenId",
          "type": "uint256"
        },
        {
          "indexed": false,
          "internalType": "uint256",
          "name": "price",
          "type": "uint256"
        },
        {
          "indexed": true,
          "internalType": "address",
          "name": "seller",
          "type": "address"
        },
        {
          "indexed": true,
          "internalType": "address",
          "name": "buyer",
          "type": "address"
        }
      ],
      "name": "Bought",
      "type": "event"
    },
    {
      "anonymous": false,
      "inputs": [
        {
          "indexed": false,
          "internalType": "uint256",
          "name": "itemId",
          "type": "uint256"
        },
        {
          "indexed": true,
          "internalType": "address",
          "name": "nft",
          "type": "address"
        },
        {
          "indexed": false,
          "internalType": "uint256",
          "name": "tokenId",
          "type": "uint256"
        },
        {
          "indexed": false,
          "internalType": "uint256",
          "name": "price",
          "type": "uint256"
        },
        {
          "indexed": true,
          "internalType": "address",
          "name": "seller",
          "type": "address"
        }
      ],
      "name": "Offered",
      "type": "event"
    },
    {
      "inputs": [],
      "name": "feeAccount",
      "outputs": [
        {
          "internalType": "address payable",
          "name": "",
          "type": "address"
        }
      ],
      "stateMutability": "view",
      "type": "function"
    },
    {
      "inputs": [],
      "name": "feePercent",
      "outputs": [
        {
          "internalType": "uint256",
          "name": "",
          "type": "uint256"
        }
      ],
      "stateMutability": "view",
      "type": "function"
    },
    {
      "inputs": [
        {
          "internalType": "address",
          "name": "user",
          "type": "address"
        }
      ],
      "name": "getPurchased",
      "outputs": [
        {
          "components": [
            {
              "internalType": "uint256",
              "name": "itemId",
              "type": "uint256"
            },
            {
              "internalType": "contract IERC721",
              "name": "nft",
              "type": "address"
            },
            {
              "internalType": "uint256",
              "name": "tokenId",
              "type": "uint256"
            },
            {
              "internalType": "uint256",
              "name": "price",
              "type": "uint256"
            },
            {
              "internalType": "address payable",
              "name": "seller",
              "type": "address"
            },
            {
              "internalType": "bool",
              "name": "sold",
              "type": "bool"
            }
          ],
          "internalType": "struct Marketplace.Item",
          "name": "",
          "type": "tuple"
        }
      ],
      "stateMutability": "view",
      "type": "function"
    },
    {
      "inputs": [
        {
          "internalType": "uint256",
          "name": "_itemId",
          "type": "uint256"
        }
      ],
      "name": "getTotalPrice",
      "outputs": [
        {
          "internalType": "uint256",
          "name": "",
          "type": "uint256"
        }
      ],
      "stateMutability": "view",
      "type": "function"
    },
    {
      "inputs": [
        {
          "internalType": "address",
          "name": "user",
          "type": "address"
        }
      ],
      "name": "getWallet",
      "outputs": [
        {
          "internalType": "uint256[]",
          "name": "",
          "type": "uint256[]"
        }
      ],
      "stateMutability": "view",
      "type": "function"
    },
    {
      "inputs": [],
      "name": "itemCount",
      "outputs": [
        {
          "internalType": "uint256",
          "name": "",
          "type": "uint256"
        }
      ],
      "stateMutability": "view",
      "type": "function"
    },
    {
      "inputs": [
        {
          "internalType": "uint256",
          "name": "",
          "type": "uint256"
        }
      ],
      "name": "items",
      "outputs": [
        {
          "internalType": "uint256",
          "name": "itemId",
          "type": "uint256"
        },
        {
          "internalType": "contract IERC721",
          "name": "nft",
          "type": "address"
        },
        {
          "internalType": "uint256",
          "name": "tokenId",
          "type": "uint256"
        },
        {
          "internalType": "uint256",
          "name": "price",
          "type": "uint256"
        },
        {
          "internalType": "address payable",
          "name": "seller",
          "type": "address"
        },
        {
          "internalType": "bool",
          "name": "sold",
          "type": "bool"
        }
      ],
      "stateMutability": "view",
      "type": "function"
    },
    {
      "inputs": [
        {
          "internalType": "contract IERC721",
          "name": "_nft",
          "type": "address"
        },
        {
          "internalType": "uint256",
          "name": "_tokenId",
          "type": "uint256"
        },
        {
          "internalType": "uint256",
          "name": "_price",
          "type": "uint256"
        }
      ],
      "name": "makeItem",
      "outputs": [],
      "stateMutability": "nonpayable",
      "type": "function"
    },
    {
      "inputs": [
        {
          "internalType": "contract IERC721",
          "name": "_nft",
          "type": "address"
        },
        {
          "internalType": "uint256",
          "name": "_tokenId",
          "type": "uint256"
        },
        {
          "internalType": "uint256",
          "name": "_price",
          "type": "uint256"
        }
      ],
      "name": "makeItemAuction",
      "outputs": [],
      "stateMutability": "nonpayable",
      "type": "function"
    },
    {
      "inputs": [
        {
          "internalType": "uint256",
          "name": "_itemId",
          "type": "uint256"
        }
      ],
      "name": "purchaseItem",
      "outputs": [],
      "stateMutability": "payable",
      "type": "function"
    },
    {
      "inputs": [
        {
          "internalType": "contract IERC721",
          "name": "_nft",
          "type": "address"
        },
        {
          "internalType": "uint256",
          "name": "_tokenId",
          "type": "uint256"
        },
        {
          "internalType": "uint256",
          "name": "_price",
          "type": "uint256"
        }
      ],
      "name": "sellItem",
      "outputs": [],
      "stateMutability": "nonpayable",
      "type": "function"
    }
  ],
  "bytecode": "0x60c06040523480156200001157600080fd5b5060405162001d4838038062001d4883398181016040528101906200003791906200009c565b60016000819055503373ffffffffffffffffffffffffffffffffffffffff1660808173ffffffffffffffffffffffffffffffffffffffff1660601b815250508060a0818152505050620000ec565b6000815190506200009681620000d2565b92915050565b600060208284031215620000af57600080fd5b6000620000bf8482850162000085565b91505092915050565b6000819050919050565b620000dd81620000c8565b8114620000e957600080fd5b50565b60805160601c60a051611c2562000123600039600081816107820152610b050152600081816104890152610d2b0152611c256000f3fe60806040526004361061009c5760003560e01c80637fd6f15c116100645780637fd6f15c1461019a578063907f5166146101c5578063bfb231d2146101ee578063ca7dd37514610230578063d38ea5bf1461026d578063fa00afc7146102895761009c565b806304d0a647146100a15780630839cbaf146100de57806365e17c9d1461011b57806368915327146101465780636bfb0d011461016f575b600080fd5b3480156100ad57600080fd5b506100c860048036038101906100c39190611377565b6102b2565b6040516100d59190611691565b60405180910390f35b3480156100ea57600080fd5b5061010560048036038101906101009190611377565b610349565b6040516101129190611753565b60405180910390f35b34801561012757600080fd5b50610130610487565b60405161013d919061163f565b60405180910390f35b34801561015257600080fd5b5061016d600480360381019061016891906113a0565b6104ab565b005b34801561017b57600080fd5b5061018461077a565b604051610191919061176e565b60405180910390f35b3480156101a657600080fd5b506101af610780565b6040516101bc919061176e565b60405180910390f35b3480156101d157600080fd5b506101ec60048036038101906101e791906113a0565b6107a4565b005b3480156101fa57600080fd5b50610215600480360381019061021091906113ef565b610a76565b60405161022796959493929190611789565b60405180910390f35b34801561023c57600080fd5b50610257600480360381019061025291906113ef565b610aff565b604051610264919061176e565b60405180910390f35b610287600480360381019061028291906113ef565b610b62565b005b34801561029557600080fd5b506102b060048036038101906102ab91906113a0565b610f9a565b005b6060600460008373ffffffffffffffffffffffffffffffffffffffff1673ffffffffffffffffffffffffffffffffffffffff16815260200190815260200160002080548060200260200160405190810160405280929190818152602001828054801561033d57602002820191906000526020600020905b815481526020019060010190808311610329575b50505050509050919050565b6103516112d4565b600360008373ffffffffffffffffffffffffffffffffffffffff1673ffffffffffffffffffffffffffffffffffffffff1681526020019081526020016000206040518060c0016040529081600082015481526020016001820160009054906101000a900473ffffffffffffffffffffffffffffffffffffffff1673ffffffffffffffffffffffffffffffffffffffff1673ffffffffffffffffffffffffffffffffffffffff16815260200160028201548152602001600382015481526020016004820160009054906101000a900473ffffffffffffffffffffffffffffffffffffffff1673ffffffffffffffffffffffffffffffffffffffff1673ffffffffffffffffffffffffffffffffffffffff1681526020016004820160149054906101000a900460ff1615151515815250509050919050565b7f000000000000000000000000000000000000000000000000000000000000000081565b600260005414156104f1576040517f08c379a00000000000000000000000000000000000000000000000000000000081526004016104e890611733565b60405180910390fd5b60026000819055506000811161053c576040517f08c379a0000000000000000000000000000000000000000000000000000000008152600401610533906116d3565b60405180910390fd5b6001600081548092919061054f90611a10565b9190505550600460003373ffffffffffffffffffffffffffffffffffffffff1673ffffffffffffffffffffffffffffffffffffffff16815260200190815260200160002060015490806001815401808255809150506001900390600052602060002001600090919091909150558273ffffffffffffffffffffffffffffffffffffffff166323b872dd3330856040518463ffffffff1660e01b81526004016105f99392919061165a565b600060405180830381600087803b15801561061357600080fd5b505af1158015610627573d6000803e3d6000fd5b505050506040518060c0016040528060015481526020018473ffffffffffffffffffffffffffffffffffffffff1681526020018381526020018281526020013373ffffffffffffffffffffffffffffffffffffffff168152602001600015158152506002600060015481526020019081526020016000206000820151816000015560208201518160010160006101000a81548173ffffffffffffffffffffffffffffffffffffffff021916908373ffffffffffffffffffffffffffffffffffffffff160217905550604082015181600201556060820151816003015560808201518160040160006101000a81548173ffffffffffffffffffffffffffffffffffffffff021916908373ffffffffffffffffffffffffffffffffffffffff16021790555060a08201518160040160146101000a81548160ff0219169083151502179055509050506001600081905550505050565b60015481565b7f000000000000000000000000000000000000000000000000000000000000000081565b600260005414156107ea576040517f08c379a00000000000000000000000000000000000000000000000000000000081526004016107e190611733565b60405180910390fd5b600260008190555060008111610835576040517f08c379a000000000000000000000000000000000000000000000000000000000815260040161082c906116d3565b60405180910390fd5b6001600081548092919061084890611a10565b91905055508273ffffffffffffffffffffffffffffffffffffffff166323b872dd3330856040518463ffffffff1660e01b815260040161088a9392919061165a565b600060405180830381600087803b1580156108a457600080fd5b505af11580156108b8573d6000803e3d6000fd5b505050506040518060c0016040528060015481526020018473ffffffffffffffffffffffffffffffffffffffff1681526020018381526020018281526020013373ffffffffffffffffffffffffffffffffffffffff168152602001600015158152506002600060015481526020019081526020016000206000820151816000015560208201518160010160006101000a81548173ffffffffffffffffffffffffffffffffffffffff021916908373ffffffffffffffffffffffffffffffffffffffff160217905550604082015181600201556060820151816003015560808201518160040160006101000a81548173ffffffffffffffffffffffffffffffffffffffff021916908373ffffffffffffffffffffffffffffffffffffffff16021790555060a08201518160040160146101000a81548160ff0219169083151502179055509050503373ffffffffffffffffffffffffffffffffffffffff168373ffffffffffffffffffffffffffffffffffffffff167f655a0cf9c8db81512be9a76dc1c5ae5380b8816ce6ad659cd61b715e2999d59a6001548585604051610a61939291906117ea565b60405180910390a36001600081905550505050565b60026020528060005260406000206000915090508060000154908060010160009054906101000a900473ffffffffffffffffffffffffffffffffffffffff16908060020154908060030154908060040160009054906101000a900473ffffffffffffffffffffffffffffffffffffffff16908060040160149054906101000a900460ff16905086565b600060647f00000000000000000000000000000000000000000000000000000000000000006064610b30919061186b565b6002600085815260200190815260200160002060030154610b5191906118f2565b610b5b91906118c1565b9050919050565b60026000541415610ba8576040517f08c379a0000000000000000000000000000000000000000000000000000000008152600401610b9f90611733565b60405180910390fd5b60026000819055506000610bbb82610aff565b90506000600260008481526020019081526020016000209050600083118015610be657506001548311155b610c25576040517f08c379a0000000000000000000000000000000000000000000000000000000008152600401610c1c90611713565b60405180910390fd5b81341015610c68576040517f08c379a0000000000000000000000000000000000000000000000000000000008152600401610c5f906116f3565b60405180910390fd5b8060040160149054906101000a900460ff1615610cba576040517f08c379a0000000000000000000000000000000000000000000000000000000008152600401610cb1906116b3565b60405180910390fd5b8060040160009054906101000a900473ffffffffffffffffffffffffffffffffffffffff1673ffffffffffffffffffffffffffffffffffffffff166108fc82600301549081150290604051600060405180830381858888f19350505050158015610d28573d6000803e3d6000fd5b507f000000000000000000000000000000000000000000000000000000000000000073ffffffffffffffffffffffffffffffffffffffff166108fc826003015484610d73919061194c565b9081150290604051600060405180830381858888f19350505050158015610d9e573d6000803e3d6000fd5b5060018160040160146101000a81548160ff0219169083151502179055508060010160009054906101000a900473ffffffffffffffffffffffffffffffffffffffff1673ffffffffffffffffffffffffffffffffffffffff166323b872dd303384600201546040518463ffffffff1660e01b8152600401610e219392919061165a565b600060405180830381600087803b158015610e3b57600080fd5b505af1158015610e4f573d6000803e3d6000fd5b50505050600460003373ffffffffffffffffffffffffffffffffffffffff1673ffffffffffffffffffffffffffffffffffffffff168152602001908152602001600020816002015490806001815401808255809150506001900390600052602060002001600090919091909150553373ffffffffffffffffffffffffffffffffffffffff168160040160009054906101000a900473ffffffffffffffffffffffffffffffffffffffff1673ffffffffffffffffffffffffffffffffffffffff168260010160009054906101000a900473ffffffffffffffffffffffffffffffffffffffff1673ffffffffffffffffffffffffffffffffffffffff167f8b4c9c8a607d67b321582dd8461041b1dc2ceeca70c8b7f37f8e02095cf2e76d8685600201548660030154604051610f85939291906117ea565b60405180910390a45050600160008190555050565b60026000541415610fe0576040517f08c379a0000000000000000000000000000000000000000000000000000000008152600401610fd790611733565b60405180910390fd5b60026000819055506000811161102b576040517f08c379a0000000000000000000000000000000000000000000000000000000008152600401611022906116d3565b60405180910390fd5b6001600081548092919061103e90611a10565b9190505550600460003373ffffffffffffffffffffffffffffffffffffffff1673ffffffffffffffffffffffffffffffffffffffff16815260200190815260200160002060015490806001815401808255809150506001900390600052602060002001600090919091909150558273ffffffffffffffffffffffffffffffffffffffff166323b872dd3330856040518463ffffffff1660e01b81526004016110e89392919061165a565b600060405180830381600087803b15801561110257600080fd5b505af1158015611116573d6000803e3d6000fd5b505050506040518060c0016040528060015481526020018473ffffffffffffffffffffffffffffffffffffffff1681526020018381526020018281526020013373ffffffffffffffffffffffffffffffffffffffff168152602001600015158152506002600060015481526020019081526020016000206000820151816000015560208201518160010160006101000a81548173ffffffffffffffffffffffffffffffffffffffff021916908373ffffffffffffffffffffffffffffffffffffffff160217905550604082015181600201556060820151816003015560808201518160040160006101000a81548173ffffffffffffffffffffffffffffffffffffffff021916908373ffffffffffffffffffffffffffffffffffffffff16021790555060a08201518160040160146101000a81548160ff0219169083151502179055509050503373ffffffffffffffffffffffffffffffffffffffff168373ffffffffffffffffffffffffffffffffffffffff167f655a0cf9c8db81512be9a76dc1c5ae5380b8816ce6ad659cd61b715e2999d59a60015485856040516112bf939291906117ea565b60405180910390a36001600081905550505050565b6040518060c0016040528060008152602001600073ffffffffffffffffffffffffffffffffffffffff1681526020016000815260200160008152602001600073ffffffffffffffffffffffffffffffffffffffff1681526020016000151581525090565b60008135905061134781611baa565b92915050565b60008135905061135c81611bc1565b92915050565b60008135905061137181611bd8565b92915050565b60006020828403121561138957600080fd5b600061139784828501611338565b91505092915050565b6000806000606084860312156113b557600080fd5b60006113c38682870161134d565b93505060206113d486828701611362565b92505060406113e586828701611362565b9150509250925092565b60006020828403121561140157600080fd5b600061140f84828501611362565b91505092915050565b60006114248383611621565b60208301905092915050565b61143981611992565b82525050565b61144881611992565b82525050565b61145781611980565b82525050565b600061146882611831565b6114728185611849565b935061147d83611821565b8060005b838110156114ae5781516114958882611418565b97506114a08361183c565b925050600181019050611481565b5085935050505092915050565b6114c4816119a4565b82525050565b6114d3816119a4565b82525050565b6114e2816119ec565b82525050565b6114f1816119ec565b82525050565b600061150460118361185a565b915061150f82611ab7565b602082019050919050565b6000611527601f8361185a565b915061153282611ae0565b602082019050919050565b600061154a60338361185a565b915061155582611b09565b604082019050919050565b600061156d60128361185a565b915061157882611b58565b602082019050919050565b6000611590601f8361185a565b915061159b82611b81565b602082019050919050565b60c0820160008201516115bc6000850182611621565b5060208201516115cf60208501826114d9565b5060408201516115e26040850182611621565b5060608201516115f56060850182611621565b5060808201516116086080850182611430565b5060a082015161161b60a08501826114bb565b50505050565b61162a816119e2565b82525050565b611639816119e2565b82525050565b6000602082019050611654600083018461143f565b92915050565b600060608201905061166f600083018661144e565b61167c602083018561144e565b6116896040830184611630565b949350505050565b600060208201905081810360008301526116ab818461145d565b905092915050565b600060208201905081810360008301526116cc816114f7565b9050919050565b600060208201905081810360008301526116ec8161151a565b9050919050565b6000602082019050818103600083015261170c8161153d565b9050919050565b6000602082019050818103600083015261172c81611560565b9050919050565b6000602082019050818103600083015261174c81611583565b9050919050565b600060c08201905061176860008301846115a6565b92915050565b60006020820190506117836000830184611630565b92915050565b600060c08201905061179e6000830189611630565b6117ab60208301886114e8565b6117b86040830187611630565b6117c56060830186611630565b6117d2608083018561143f565b6117df60a08301846114ca565b979650505050505050565b60006060820190506117ff6000830186611630565b61180c6020830185611630565b6118196040830184611630565b949350505050565b6000819050602082019050919050565b600081519050919050565b6000602082019050919050565b600082825260208201905092915050565b600082825260208201905092915050565b6000611876826119e2565b9150611881836119e2565b9250827fffffffffffffffffffffffffffffffffffffffffffffffffffffffffffffffff038211156118b6576118b5611a59565b5b828201905092915050565b60006118cc826119e2565b91506118d7836119e2565b9250826118e7576118e6611a88565b5b828204905092915050565b60006118fd826119e2565b9150611908836119e2565b9250817fffffffffffffffffffffffffffffffffffffffffffffffffffffffffffffffff048311821515161561194157611940611a59565b5b828202905092915050565b6000611957826119e2565b9150611962836119e2565b92508282101561197557611974611a59565b5b828203905092915050565b600061198b826119c2565b9050919050565b600061199d826119c2565b9050919050565b60008115159050919050565b60006119bb82611980565b9050919050565b600073ffffffffffffffffffffffffffffffffffffffff82169050919050565b6000819050919050565b60006119f7826119fe565b9050919050565b6000611a09826119c2565b9050919050565b6000611a1b826119e2565b91507fffffffffffffffffffffffffffffffffffffffffffffffffffffffffffffffff821415611a4e57611a4d611a59565b5b600182019050919050565b7f4e487b7100000000000000000000000000000000000000000000000000000000600052601160045260246000fd5b7f4e487b7100000000000000000000000000000000000000000000000000000000600052601260045260246000fd5b7f6974656d20616c726561647920736f6c64000000000000000000000000000000600082015250565b7f5072696365206d7573742062652067726561746572207468616e207a65726f00600082015250565b7f6e6f7420656e6f75676820657468657220746f20636f766572206974656d207060008201527f7269636520616e64206d61726b65742066656500000000000000000000000000602082015250565b7f6974656d20646f65736e27742065786973740000000000000000000000000000600082015250565b7f5265656e7472616e637947756172643a207265656e7472616e742063616c6c00600082015250565b611bb381611980565b8114611bbe57600080fd5b50565b611bca816119b0565b8114611bd557600080fd5b50565b611be1816119e2565b8114611bec57600080fd5b5056fea26469706673582212201f067e1b22cd8793875345971ba77c623e82fc48c0a4b615389e5c501a618c7c64736f6c63430008040033",
  "linkReferences": {},
  "deployedLinkReferences": {}
}