{
  "_format": "hh-sol-artifact-1",
  "contractName": "Marketplace",
  "sourceName": "src/backend/contracts/Marketplace.sol",
  "abi": [
    {
      "inputs": [
        {
          "internalType": "uint256",
          "name": "_feePercent",
          "type": "uint256"
        }
      ],
      "stateMutability": "nonpayable",
      "type": "constructor"
    },
    {
      "anonymous": false,
      "inputs": [
        {
          "indexed": true,
          "internalType": "uint256",
          "name": "auctionId",
          "type": "uint256"
        },
        {
          "indexed": true,
          "internalType": "address",
          "name": "seller",
          "type": "address"
        },
        {
          "indexed": true,
          "internalType": "uint256",
          "name": "itemId",
          "type": "uint256"
        }
      ],
      "name": "AuctionCanceled",
      "type": "event"
    },
    {
      "anonymous": false,
      "inputs": [
        {
          "indexed": true,
          "internalType": "uint256",
          "name": "acutionId",
          "type": "uint256"
        },
        {
          "indexed": true,
          "internalType": "uint256",
          "name": "nftId",
          "type": "uint256"
        },
        {
          "indexed": true,
          "internalType": "address",
          "name": "seller",
          "type": "address"
        },
        {
          "indexed": false,
          "internalType": "uint256",
          "name": "endAt",
          "type": "uint256"
        },
        {
          "indexed": false,
          "internalType": "uint256",
          "name": "price",
          "type": "uint256"
        }
      ],
      "name": "AuctionCreated",
      "type": "event"
    },
    {
      "anonymous": false,
      "inputs": [
        {
          "indexed": true,
          "internalType": "uint256",
          "name": "auctionId",
          "type": "uint256"
        },
        {
          "indexed": true,
          "internalType": "address",
          "name": "bidder",
          "type": "address"
        },
        {
          "indexed": true,
          "internalType": "uint256",
          "name": "nftId",
          "type": "uint256"
        },
        {
          "indexed": false,
          "internalType": "uint256",
          "name": "price",
          "type": "uint256"
        }
      ],
      "name": "AuctionEnded",
      "type": "event"
    },
    {
      "anonymous": false,
      "inputs": [
        {
          "indexed": true,
          "internalType": "uint256",
          "name": "auctionId",
          "type": "uint256"
        },
        {
          "indexed": true,
          "internalType": "address",
          "name": "bidder",
          "type": "address"
        },
        {
          "indexed": true,
          "internalType": "uint256",
          "name": "nftId",
          "type": "uint256"
        },
        {
          "indexed": false,
          "internalType": "uint256",
          "name": "bid",
          "type": "uint256"
        }
      ],
      "name": "Bid",
      "type": "event"
    },
    {
      "anonymous": false,
      "inputs": [
        {
          "indexed": false,
          "internalType": "uint256",
          "name": "itemId",
          "type": "uint256"
        },
        {
          "indexed": true,
          "internalType": "address",
          "name": "nft",
          "type": "address"
        },
        {
          "indexed": false,
          "internalType": "uint256",
          "name": "tokenId",
          "type": "uint256"
        },
        {
          "indexed": false,
          "internalType": "uint256",
          "name": "price",
          "type": "uint256"
        },
        {
          "indexed": true,
          "internalType": "address",
          "name": "seller",
          "type": "address"
        },
        {
          "indexed": true,
          "internalType": "address",
          "name": "buyer",
          "type": "address"
        }
      ],
      "name": "Bought",
      "type": "event"
    },
    {
      "anonymous": false,
      "inputs": [
        {
          "indexed": false,
          "internalType": "uint256",
          "name": "itemId",
          "type": "uint256"
        },
        {
          "indexed": true,
          "internalType": "address",
          "name": "nft",
          "type": "address"
        },
        {
          "indexed": false,
          "internalType": "uint256",
          "name": "tokenId",
          "type": "uint256"
        },
        {
          "indexed": false,
          "internalType": "uint256",
          "name": "price",
          "type": "uint256"
        },
        {
          "indexed": true,
          "internalType": "address",
          "name": "seller",
          "type": "address"
        }
      ],
      "name": "Offered",
      "type": "event"
    },
    {
      "inputs": [
        {
          "internalType": "address",
          "name": "",
          "type": "address"
        },
        {
          "internalType": "uint256",
          "name": "",
          "type": "uint256"
        }
      ],
      "name": "BidersBalances",
      "outputs": [
        {
          "internalType": "uint256",
          "name": "",
          "type": "uint256"
        }
      ],
      "stateMutability": "view",
      "type": "function"
    },
    {
      "inputs": [
        {
          "internalType": "uint256",
          "name": "",
          "type": "uint256"
        }
      ],
      "name": "IdToAuction",
      "outputs": [
        {
          "internalType": "uint256",
          "name": "id",
          "type": "uint256"
        },
        {
          "internalType": "contract IERC721",
          "name": "nft",
          "type": "address"
        },
        {
          "internalType": "uint256",
          "name": "tokenId",
          "type": "uint256"
        },
        {
          "internalType": "uint256",
          "name": "price",
          "type": "uint256"
        },
        {
          "internalType": "address payable",
          "name": "seller",
          "type": "address"
        },
        {
          "internalType": "bool",
          "name": "sold",
          "type": "bool"
        },
        {
          "internalType": "bool",
          "name": "start",
          "type": "bool"
        },
        {
          "internalType": "bool",
          "name": "end",
          "type": "bool"
        },
        {
          "internalType": "uint256",
          "name": "endAt",
          "type": "uint256"
        },
        {
          "internalType": "address payable",
          "name": "highestBidder",
          "type": "address"
        },
        {
          "internalType": "uint256",
          "name": "highestBid",
          "type": "uint256"
        }
      ],
      "stateMutability": "view",
      "type": "function"
    },
    {
      "inputs": [],
      "name": "auctionId",
      "outputs": [
        {
          "internalType": "uint256",
          "name": "_value",
          "type": "uint256"
        }
      ],
      "stateMutability": "view",
      "type": "function"
    },
    {
      "inputs": [
        {
          "internalType": "uint256",
          "name": "_auctionId",
          "type": "uint256"
        }
      ],
      "name": "bid",
      "outputs": [],
      "stateMutability": "payable",
      "type": "function"
    },
    {
      "inputs": [
        {
          "internalType": "contract IERC721",
          "name": "_nft",
          "type": "address"
        },
        {
          "internalType": "uint256",
          "name": "_auctionId",
          "type": "uint256"
        }
      ],
      "name": "endAuction",
      "outputs": [],
      "stateMutability": "nonpayable",
      "type": "function"
    },
    {
      "inputs": [],
      "name": "feeAccount",
      "outputs": [
        {
          "internalType": "address payable",
          "name": "",
          "type": "address"
        }
      ],
      "stateMutability": "view",
      "type": "function"
    },
    {
      "inputs": [],
      "name": "feePercent",
      "outputs": [
        {
          "internalType": "uint256",
          "name": "",
          "type": "uint256"
        }
      ],
      "stateMutability": "view",
      "type": "function"
    },
    {
      "inputs": [
        {
          "internalType": "address",
          "name": "user",
          "type": "address"
        }
      ],
      "name": "getPurchased",
      "outputs": [
        {
          "components": [
            {
              "internalType": "uint256",
              "name": "itemId",
              "type": "uint256"
            },
            {
              "internalType": "contract IERC721",
              "name": "nft",
              "type": "address"
            },
            {
              "internalType": "uint256",
              "name": "tokenId",
              "type": "uint256"
            },
            {
              "internalType": "uint256",
              "name": "price",
              "type": "uint256"
            },
            {
              "internalType": "address payable",
              "name": "seller",
              "type": "address"
            },
            {
              "internalType": "bool",
              "name": "sold",
              "type": "bool"
            }
          ],
          "internalType": "struct Marketplace.Item",
          "name": "",
          "type": "tuple"
        }
      ],
      "stateMutability": "view",
      "type": "function"
    },
    {
      "inputs": [
        {
          "internalType": "uint256",
          "name": "_itemId",
          "type": "uint256"
        }
      ],
      "name": "getTotalPrice",
      "outputs": [
        {
          "internalType": "uint256",
          "name": "",
          "type": "uint256"
        }
      ],
      "stateMutability": "view",
      "type": "function"
    },
    {
      "inputs": [
        {
          "internalType": "address",
          "name": "user",
          "type": "address"
        }
      ],
      "name": "getWallet",
      "outputs": [
        {
          "internalType": "uint256[]",
          "name": "",
          "type": "uint256[]"
        }
      ],
      "stateMutability": "view",
      "type": "function"
    },
    {
      "inputs": [],
      "name": "itemCount",
      "outputs": [
        {
          "internalType": "uint256",
          "name": "",
          "type": "uint256"
        }
      ],
      "stateMutability": "view",
      "type": "function"
    },
    {
      "inputs": [
        {
          "internalType": "uint256",
          "name": "",
          "type": "uint256"
        }
      ],
      "name": "items",
      "outputs": [
        {
          "internalType": "uint256",
          "name": "itemId",
          "type": "uint256"
        },
        {
          "internalType": "contract IERC721",
          "name": "nft",
          "type": "address"
        },
        {
          "internalType": "uint256",
          "name": "tokenId",
          "type": "uint256"
        },
        {
          "internalType": "uint256",
          "name": "price",
          "type": "uint256"
        },
        {
          "internalType": "address payable",
          "name": "seller",
          "type": "address"
        },
        {
          "internalType": "bool",
          "name": "sold",
          "type": "bool"
        }
      ],
      "stateMutability": "view",
      "type": "function"
    },
    {
      "inputs": [
        {
          "internalType": "contract IERC721",
          "name": "_nft",
          "type": "address"
        },
        {
          "internalType": "uint256",
          "name": "_tokenId",
          "type": "uint256"
        },
        {
          "internalType": "uint256",
          "name": "_price",
          "type": "uint256"
        }
      ],
      "name": "makeItem",
      "outputs": [],
      "stateMutability": "nonpayable",
      "type": "function"
    },
    {
      "inputs": [
        {
          "internalType": "contract IERC721",
          "name": "_nft",
          "type": "address"
        },
        {
          "internalType": "uint256",
          "name": "_tokenId",
          "type": "uint256"
        },
        {
          "internalType": "uint256",
          "name": "_firstBid",
          "type": "uint256"
        },
        {
          "internalType": "uint256",
          "name": "_timesInHour",
          "type": "uint256"
        }
      ],
      "name": "makeItemAuction",
      "outputs": [],
      "stateMutability": "nonpayable",
      "type": "function"
    },
    {
      "inputs": [
        {
          "internalType": "uint256",
          "name": "_itemId",
          "type": "uint256"
        }
      ],
      "name": "purchaseItem",
      "outputs": [],
      "stateMutability": "payable",
      "type": "function"
    },
    {
      "inputs": [
        {
          "internalType": "contract IERC721",
          "name": "_nft",
          "type": "address"
        },
        {
          "internalType": "uint256",
          "name": "_tokenId",
          "type": "uint256"
        },
        {
          "internalType": "uint256",
          "name": "_price",
          "type": "uint256"
        }
      ],
      "name": "sellItem",
      "outputs": [],
      "stateMutability": "nonpayable",
      "type": "function"
    }
  ],
  "bytecode": "0x60c06040523480156200001157600080fd5b5060405162002c5638038062002c5683398181016040528101906200003791906200009c565b60016000819055503373ffffffffffffffffffffffffffffffffffffffff1660808173ffffffffffffffffffffffffffffffffffffffff1660601b815250508060a0818152505050620000ec565b6000815190506200009681620000d2565b92915050565b600060208284031215620000af57600080fd5b6000620000bf8482850162000085565b91505092915050565b6000819050919050565b620000dd81620000c8565b8114620000e957600080fd5b50565b60805160601c60a051612b336200012360003960008181610c81015261144601526000818161098801526117720152612b336000f3fe6080604052600436106100f35760003560e01c806388cedbc41161008a578063d01b4eaf11610059578063d01b4eaf14610334578063d260c96b1461037b578063d38ea5bf146103b8578063fa00afc7146103d4576100f3565b806388cedbc414610263578063bfb231d21461028c578063c77886e1146102ce578063ca7dd375146102f7576100f3565b806365e17c9d116100c657806365e17c9d146101b957806368915327146101e45780636bfb0d011461020d5780637fd6f15c14610238576100f3565b806304d0a647146100f85780630839cbaf1461013557806310782f8f14610172578063454a2ab31461019d575b600080fd5b34801561010457600080fd5b5061011f600480360381019061011a9190611de2565b6103fd565b60405161012c91906122cc565b60405180910390f35b34801561014157600080fd5b5061015c60048036038101906101579190611de2565b610494565b604051610169919061246e565b60405180910390f35b34801561017e57600080fd5b506101876105d2565b6040516101949190612489565b60405180910390f35b6101b760048036038101906101b29190611f35565b6105de565b005b3480156101c557600080fd5b506101ce610986565b6040516101db919061227a565b60405180910390f35b3480156101f057600080fd5b5061020b60048036038101906102069190611e83565b6109aa565b005b34801561021957600080fd5b50610222610c79565b60405161022f9190612489565b60405180910390f35b34801561024457600080fd5b5061024d610c7f565b60405161025a9190612489565b60405180910390f35b34801561026f57600080fd5b5061028a60048036038101906102859190611e47565b610ca3565b005b34801561029857600080fd5b506102b360048036038101906102ae9190611f35565b611023565b6040516102c5969594939291906124a4565b60405180910390f35b3480156102da57600080fd5b506102f560048036038101906102f09190611ed2565b6110ac565b005b34801561030357600080fd5b5061031e60048036038101906103199190611f35565b611440565b60405161032b9190612489565b60405180910390f35b34801561034057600080fd5b5061035b60048036038101906103569190611f35565b6114a3565b6040516103729b9a99989796959493929190612505565b60405180910390f35b34801561038757600080fd5b506103a2600480360381019061039d9190611e0b565b611584565b6040516103af9190612489565b60405180910390f35b6103d260048036038101906103cd9190611f35565b6115a9565b005b3480156103e057600080fd5b506103fb60048036038101906103f69190611e83565b6119e1565b005b6060600460008373ffffffffffffffffffffffffffffffffffffffff1673ffffffffffffffffffffffffffffffffffffffff16815260200190815260200160002080548060200260200160405190810160405280929190818152602001828054801561048857602002820191906000526020600020905b815481526020019060010190808311610474575b50505050509050919050565b61049c611d3f565b600360008373ffffffffffffffffffffffffffffffffffffffff1673ffffffffffffffffffffffffffffffffffffffff1681526020019081526020016000206040518060c0016040529081600082015481526020016001820160009054906101000a900473ffffffffffffffffffffffffffffffffffffffff1673ffffffffffffffffffffffffffffffffffffffff1673ffffffffffffffffffffffffffffffffffffffff16815260200160028201548152602001600382015481526020016004820160009054906101000a900473ffffffffffffffffffffffffffffffffffffffff1673ffffffffffffffffffffffffffffffffffffffff1673ffffffffffffffffffffffffffffffffffffffff1681526020016004820160149054906101000a900460ff1615151515815250509050919050565b60058060000154905081565b60026000541415610624576040517f08c379a000000000000000000000000000000000000000000000000000000000815260040161061b9061242e565b60405180910390fd5b600260008190555060006006600083815260200190815260200160002060080154905060006006600084815260200190815260200160002060040160159054906101000a900460ff16905060006006600085815260200190815260200160002060040160169054906101000a900460ff1690506000600660008681526020019081526020016000206005015490508334116106f4576040517f08c379a00000000000000000000000000000000000000000000000000000000081526004016106eb906123ce565b60405180910390fd5b82610734576040517f08c379a000000000000000000000000000000000000000000000000000000000815260040161072b906123ae565b60405180910390fd5b600015158215151461077b576040517f08c379a00000000000000000000000000000000000000000000000000000000081526004016107729061244e565b60405180910390fd5b8042106107bd576040517f08c379a00000000000000000000000000000000000000000000000000000000081526004016107b4906123ee565b60405180910390fd5b34600760003373ffffffffffffffffffffffffffffffffffffffff1673ffffffffffffffffffffffffffffffffffffffff1681526020019081526020016000206000878152602001908152602001600020600082825461081d919061265a565b92505081905550600060066000878152602001908152602001600020600201549050346006600088815260200190815260200160002060080181905550336006600088815260200190815260200160002060070160006101000a81548173ffffffffffffffffffffffffffffffffffffffff021916908373ffffffffffffffffffffffffffffffffffffffff16021790555060066000878152602001908152602001600020600601339080600181540180825580915050600190039060005260206000200160009091909190916101000a81548173ffffffffffffffffffffffffffffffffffffffff021916908373ffffffffffffffffffffffffffffffffffffffff160217905550803373ffffffffffffffffffffffffffffffffffffffff16877f3138d8d517460c959fb333d4e8d87ea984f1cf15d6742c02e2955dd27a622b703460405161096e9190612489565b60405180910390a45050505050600160008190555050565b7f000000000000000000000000000000000000000000000000000000000000000081565b600260005414156109f0576040517f08c379a00000000000000000000000000000000000000000000000000000000081526004016109e79061242e565b60405180910390fd5b600260008190555060008111610a3b576040517f08c379a0000000000000000000000000000000000000000000000000000000008152600401610a329061230e565b60405180910390fd5b60016000815480929190610a4e906127ff565b9190505550600460003373ffffffffffffffffffffffffffffffffffffffff1673ffffffffffffffffffffffffffffffffffffffff16815260200190815260200160002060015490806001815401808255809150506001900390600052602060002001600090919091909150558273ffffffffffffffffffffffffffffffffffffffff166323b872dd3330856040518463ffffffff1660e01b8152600401610af893929190612295565b600060405180830381600087803b158015610b1257600080fd5b505af1158015610b26573d6000803e3d6000fd5b505050506040518060c0016040528060015481526020018473ffffffffffffffffffffffffffffffffffffffff1681526020018381526020018281526020013373ffffffffffffffffffffffffffffffffffffffff168152602001600015158152506002600060015481526020019081526020016000206000820151816000015560208201518160010160006101000a81548173ffffffffffffffffffffffffffffffffffffffff021916908373ffffffffffffffffffffffffffffffffffffffff160217905550604082015181600201556060820151816003015560808201518160040160006101000a81548173ffffffffffffffffffffffffffffffffffffffff021916908373ffffffffffffffffffffffffffffffffffffffff16021790555060a08201518160040160146101000a81548160ff0219169083151502179055509050506001600081905550505050565b60015481565b7f000000000000000000000000000000000000000000000000000000000000000081565b60026000541415610ce9576040517f08c379a0000000000000000000000000000000000000000000000000000000008152600401610ce09061242e565b60405180910390fd5b600260008190555060006006600083815260200190815260200160002060050154905060006006600084815260200190815260200160002060040160159054906101000a900460ff16905060006006600085815260200190815260200160002060040160169054906101000a900460ff16905082421015610d9f576040517f08c379a0000000000000000000000000000000000000000000000000000000008152600401610d969061238e565b60405180910390fd5b6001151582151514610de6576040517f08c379a0000000000000000000000000000000000000000000000000000000008152600401610ddd9061240e565b60405180910390fd5b6000151581151514610e2d576040517f08c379a0000000000000000000000000000000000000000000000000000000008152600401610e249061244e565b60405180910390fd5b60006006600086815260200190815260200160002060070160009054906101000a900473ffffffffffffffffffffffffffffffffffffffff1690506000600760008373ffffffffffffffffffffffffffffffffffffffff1673ffffffffffffffffffffffffffffffffffffffff16815260200190815260200160002060008781526020019081526020016000208190555060006006600087815260200190815260200160002060080154905060006006600088815260200190815260200160002060020154905060016006600089815260200190815260200160002060040160166101000a81548160ff02191690831515021790555060006006600089815260200190815260200160002060040160156101000a81548160ff0219169083151502179055508773ffffffffffffffffffffffffffffffffffffffff166323b872dd3033846040518463ffffffff1660e01b8152600401610f8f93929190612295565b600060405180830381600087803b158015610fa957600080fd5b505af1158015610fbd573d6000803e3d6000fd5b50505050808373ffffffffffffffffffffffffffffffffffffffff16887fe9ba83469fc8ee4260dd274fd43b5a54f2df813ad21c4637d53084d1f3866b37856040516110099190612489565b60405180910390a450505050505060016000819055505050565b60026020528060005260406000206000915090508060000154908060010160009054906101000a900473ffffffffffffffffffffffffffffffffffffffff16908060020154908060030154908060040160009054906101000a900473ffffffffffffffffffffffffffffffffffffffff16908060040160149054906101000a900460ff16905086565b600260005414156110f2576040517f08c379a00000000000000000000000000000000000000000000000000000000081526004016110e99061242e565b60405180910390fd5b60026000819055506000821161113d576040517f08c379a00000000000000000000000000000000000000000000000000000000081526004016111349061236e565b60405180910390fd5b6111476005611d1b565b60006111536005611d31565b905080600660008381526020019081526020016000206000018190555060016006600083815260200190815260200160002060040160156101000a81548160ff02191690831515021790555060006006600083815260200190815260200160002060040160166101000a81548160ff021916908315150217905550610e10826111dc91906126e1565b426111e7919061265a565b600660008381526020019081526020016000206005018190555060066000828152602001908152602001600020600601339080600181540180825580915050600190039060005260206000200160009091909190916101000a81548173ffffffffffffffffffffffffffffffffffffffff021916908373ffffffffffffffffffffffffffffffffffffffff160217905550336006600083815260200190815260200160002060070160006101000a81548173ffffffffffffffffffffffffffffffffffffffff021916908373ffffffffffffffffffffffffffffffffffffffff160217905550826006600083815260200190815260200160002060080181905550336006600083815260200190815260200160002060040160006101000a81548173ffffffffffffffffffffffffffffffffffffffff021916908373ffffffffffffffffffffffffffffffffffffffff1602179055508360066000838152602001908152602001600020600201819055508473ffffffffffffffffffffffffffffffffffffffff166323b872dd3330876040518463ffffffff1660e01b815260040161139593929190612295565b600060405180830381600087803b1580156113af57600080fd5b505af11580156113c3573d6000803e3d6000fd5b505050503373ffffffffffffffffffffffffffffffffffffffff1684827fc01e7da6ec06ecf5e1b887799549c755425a022ab59da72fa2d8c6255c10bc85610e108661140f91906126e1565b4261141a919061265a565b876040516114299291906125b0565b60405180910390a450600160008190555050505050565b600060647f00000000000000000000000000000000000000000000000000000000000000006064611471919061265a565b600260008581526020019081526020016000206003015461149291906126e1565b61149c91906126b0565b9050919050565b60066020528060005260406000206000915090508060000154908060010160009054906101000a900473ffffffffffffffffffffffffffffffffffffffff16908060020154908060030154908060040160009054906101000a900473ffffffffffffffffffffffffffffffffffffffff16908060040160149054906101000a900460ff16908060040160159054906101000a900460ff16908060040160169054906101000a900460ff16908060050154908060070160009054906101000a900473ffffffffffffffffffffffffffffffffffffffff1690806008015490508b565b6007602052816000526040600020602052806000526040600020600091509150505481565b600260005414156115ef576040517f08c379a00000000000000000000000000000000000000000000000000000000081526004016115e69061242e565b60405180910390fd5b6002600081905550600061160282611440565b9050600060026000848152602001908152602001600020905060008311801561162d57506001548311155b61166c576040517f08c379a00000000000000000000000000000000000000000000000000000000081526004016116639061234e565b60405180910390fd5b813410156116af576040517f08c379a00000000000000000000000000000000000000000000000000000000081526004016116a69061232e565b60405180910390fd5b8060040160149054906101000a900460ff1615611701576040517f08c379a00000000000000000000000000000000000000000000000000000000081526004016116f8906122ee565b60405180910390fd5b8060040160009054906101000a900473ffffffffffffffffffffffffffffffffffffffff1673ffffffffffffffffffffffffffffffffffffffff166108fc82600301549081150290604051600060405180830381858888f1935050505015801561176f573d6000803e3d6000fd5b507f000000000000000000000000000000000000000000000000000000000000000073ffffffffffffffffffffffffffffffffffffffff166108fc8260030154846117ba919061273b565b9081150290604051600060405180830381858888f193505050501580156117e5573d6000803e3d6000fd5b5060018160040160146101000a81548160ff0219169083151502179055508060010160009054906101000a900473ffffffffffffffffffffffffffffffffffffffff1673ffffffffffffffffffffffffffffffffffffffff166323b872dd303384600201546040518463ffffffff1660e01b815260040161186893929190612295565b600060405180830381600087803b15801561188257600080fd5b505af1158015611896573d6000803e3d6000fd5b50505050600460003373ffffffffffffffffffffffffffffffffffffffff1673ffffffffffffffffffffffffffffffffffffffff168152602001908152602001600020816002015490806001815401808255809150506001900390600052602060002001600090919091909150553373ffffffffffffffffffffffffffffffffffffffff168160040160009054906101000a900473ffffffffffffffffffffffffffffffffffffffff1673ffffffffffffffffffffffffffffffffffffffff168260010160009054906101000a900473ffffffffffffffffffffffffffffffffffffffff1673ffffffffffffffffffffffffffffffffffffffff167f8b4c9c8a607d67b321582dd8461041b1dc2ceeca70c8b7f37f8e02095cf2e76d86856002015486600301546040516119cc939291906125d9565b60405180910390a45050600160008190555050565b60026000541415611a27576040517f08c379a0000000000000000000000000000000000000000000000000000000008152600401611a1e9061242e565b60405180910390fd5b600260008190555060008111611a72576040517f08c379a0000000000000000000000000000000000000000000000000000000008152600401611a699061230e565b60405180910390fd5b60016000815480929190611a85906127ff565b9190505550600460003373ffffffffffffffffffffffffffffffffffffffff1673ffffffffffffffffffffffffffffffffffffffff16815260200190815260200160002060015490806001815401808255809150506001900390600052602060002001600090919091909150558273ffffffffffffffffffffffffffffffffffffffff166323b872dd3330856040518463ffffffff1660e01b8152600401611b2f93929190612295565b600060405180830381600087803b158015611b4957600080fd5b505af1158015611b5d573d6000803e3d6000fd5b505050506040518060c0016040528060015481526020018473ffffffffffffffffffffffffffffffffffffffff1681526020018381526020018281526020013373ffffffffffffffffffffffffffffffffffffffff168152602001600015158152506002600060015481526020019081526020016000206000820151816000015560208201518160010160006101000a81548173ffffffffffffffffffffffffffffffffffffffff021916908373ffffffffffffffffffffffffffffffffffffffff160217905550604082015181600201556060820151816003015560808201518160040160006101000a81548173ffffffffffffffffffffffffffffffffffffffff021916908373ffffffffffffffffffffffffffffffffffffffff16021790555060a08201518160040160146101000a81548160ff0219169083151502179055509050503373ffffffffffffffffffffffffffffffffffffffff168373ffffffffffffffffffffffffffffffffffffffff167f655a0cf9c8db81512be9a76dc1c5ae5380b8816ce6ad659cd61b715e2999d59a6001548585604051611d06939291906125d9565b60405180910390a36001600081905550505050565b6001816000016000828254019250508190555050565b600081600001549050919050565b6040518060c0016040528060008152602001600073ffffffffffffffffffffffffffffffffffffffff1681526020016000815260200160008152602001600073ffffffffffffffffffffffffffffffffffffffff1681526020016000151581525090565b600081359050611db281612ab8565b92915050565b600081359050611dc781612acf565b92915050565b600081359050611ddc81612ae6565b92915050565b600060208284031215611df457600080fd5b6000611e0284828501611da3565b91505092915050565b60008060408385031215611e1e57600080fd5b6000611e2c85828601611da3565b9250506020611e3d85828601611dcd565b9150509250929050565b60008060408385031215611e5a57600080fd5b6000611e6885828601611db8565b9250506020611e7985828601611dcd565b9150509250929050565b600080600060608486031215611e9857600080fd5b6000611ea686828701611db8565b9350506020611eb786828701611dcd565b9250506040611ec886828701611dcd565b9150509250925092565b60008060008060808587031215611ee857600080fd5b6000611ef687828801611db8565b9450506020611f0787828801611dcd565b9350506040611f1887828801611dcd565b9250506060611f2987828801611dcd565b91505092959194509250565b600060208284031215611f4757600080fd5b6000611f5584828501611dcd565b91505092915050565b6000611f6a838361225c565b60208301905092915050565b611f7f81612781565b82525050565b611f8e81612781565b82525050565b611f9d8161276f565b82525050565b6000611fae82612620565b611fb88185612638565b9350611fc383612610565b8060005b83811015611ff4578151611fdb8882611f5e565b9750611fe68361262b565b925050600181019050611fc7565b5085935050505092915050565b61200a81612793565b82525050565b61201981612793565b82525050565b612028816127db565b82525050565b612037816127db565b82525050565b600061204a601183612649565b9150612055826128a6565b602082019050919050565b600061206d601f83612649565b9150612078826128cf565b602082019050919050565b6000612090603383612649565b915061209b826128f8565b604082019050919050565b60006120b3601283612649565b91506120be82612947565b602082019050919050565b60006120d6600983612649565b91506120e182612970565b602082019050919050565b60006120f9600783612649565b915061210482612999565b602082019050919050565b600061211c600883612649565b9150612127826129c2565b602082019050919050565b600061213f600b83612649565b915061214a826129eb565b602082019050919050565b6000612162600883612649565b915061216d82612a14565b602082019050919050565b6000612185600b83612649565b915061219082612a3d565b602082019050919050565b60006121a8601f83612649565b91506121b382612a66565b602082019050919050565b60006121cb600583612649565b91506121d682612a8f565b602082019050919050565b60c0820160008201516121f7600085018261225c565b50602082015161220a602085018261201f565b50604082015161221d604085018261225c565b506060820151612230606085018261225c565b5060808201516122436080850182611f76565b5060a082015161225660a0850182612001565b50505050565b612265816127d1565b82525050565b612274816127d1565b82525050565b600060208201905061228f6000830184611f85565b92915050565b60006060820190506122aa6000830186611f94565b6122b76020830185611f94565b6122c4604083018461226b565b949350505050565b600060208201905081810360008301526122e68184611fa3565b905092915050565b600060208201905081810360008301526123078161203d565b9050919050565b6000602082019050818103600083015261232781612060565b9050919050565b6000602082019050818103600083015261234781612083565b9050919050565b60006020820190508181036000830152612367816120a6565b9050919050565b60006020820190508181036000830152612387816120c9565b9050919050565b600060208201905081810360008301526123a7816120ec565b9050919050565b600060208201905081810360008301526123c78161210f565b9050919050565b600060208201905081810360008301526123e781612132565b9050919050565b6000602082019050818103600083015261240781612155565b9050919050565b6000602082019050818103600083015261242781612178565b9050919050565b600060208201905081810360008301526124478161219b565b9050919050565b60006020820190508181036000830152612467816121be565b9050919050565b600060c08201905061248360008301846121e1565b92915050565b600060208201905061249e600083018461226b565b92915050565b600060c0820190506124b9600083018961226b565b6124c6602083018861202e565b6124d3604083018761226b565b6124e0606083018661226b565b6124ed6080830185611f85565b6124fa60a0830184612010565b979650505050505050565b60006101608201905061251b600083018e61226b565b612528602083018d61202e565b612535604083018c61226b565b612542606083018b61226b565b61254f608083018a611f85565b61255c60a0830189612010565b61256960c0830188612010565b61257660e0830187612010565b61258461010083018661226b565b612592610120830185611f85565b6125a061014083018461226b565b9c9b505050505050505050505050565b60006040820190506125c5600083018561226b565b6125d2602083018461226b565b9392505050565b60006060820190506125ee600083018661226b565b6125fb602083018561226b565b612608604083018461226b565b949350505050565b6000819050602082019050919050565b600081519050919050565b6000602082019050919050565b600082825260208201905092915050565b600082825260208201905092915050565b6000612665826127d1565b9150612670836127d1565b9250827fffffffffffffffffffffffffffffffffffffffffffffffffffffffffffffffff038211156126a5576126a4612848565b5b828201905092915050565b60006126bb826127d1565b91506126c6836127d1565b9250826126d6576126d5612877565b5b828204905092915050565b60006126ec826127d1565b91506126f7836127d1565b9250817fffffffffffffffffffffffffffffffffffffffffffffffffffffffffffffffff04831182151516156127305761272f612848565b5b828202905092915050565b6000612746826127d1565b9150612751836127d1565b92508282101561276457612763612848565b5b828203905092915050565b600061277a826127b1565b9050919050565b600061278c826127b1565b9050919050565b60008115159050919050565b60006127aa8261276f565b9050919050565b600073ffffffffffffffffffffffffffffffffffffffff82169050919050565b6000819050919050565b60006127e6826127ed565b9050919050565b60006127f8826127b1565b9050919050565b600061280a826127d1565b91507fffffffffffffffffffffffffffffffffffffffffffffffffffffffffffffffff82141561283d5761283c612848565b5b600182019050919050565b7f4e487b7100000000000000000000000000000000000000000000000000000000600052601160045260246000fd5b7f4e487b7100000000000000000000000000000000000000000000000000000000600052601260045260246000fd5b7f6974656d20616c726561647920736f6c64000000000000000000000000000000600082015250565b7f5072696365206d7573742062652067726561746572207468616e207a65726f00600082015250565b7f6e6f7420656e6f75676820657468657220746f20636f766572206974656d207060008201527f7269636520616e64206d61726b65742066656500000000000000000000000000602082015250565b7f6974656d20646f65736e27742065786973740000000000000000000000000000600082015250565b7f7072696365203d20300000000000000000000000000000000000000000000000600082015250565b7f6e6f742079657400000000000000000000000000000000000000000000000000600082015250565b7f2173746172746564000000000000000000000000000000000000000000000000600082015250565b7f76616c7565203c20482e42000000000000000000000000000000000000000000600082015250565b7f74696d65206f7574000000000000000000000000000000000000000000000000600082015250565b7f6e6f742073746172746564000000000000000000000000000000000000000000600082015250565b7f5265656e7472616e637947756172643a207265656e7472616e742063616c6c00600082015250565b7f656e646564000000000000000000000000000000000000000000000000000000600082015250565b612ac18161276f565b8114612acc57600080fd5b50565b612ad88161279f565b8114612ae357600080fd5b50565b612aef816127d1565b8114612afa57600080fd5b5056fea2646970667358221220b2ce3be6084db1730c69a0c9802e91f8559f74aac3311d6e488ac42c44e65e6964736f6c63430008040033",
  "linkReferences": {},
  "deployedLinkReferences": {}
}